:10200000008000200D33000041370000F532000051
:1020100000000000000000000000000000000000C0
:10202000000000000000000000000000F532000089
:102030000000000000000000F532000061330000E5
:10204000F5320000F5320000F5320000F5320000F4
:1020500005370000F5320000F9310000F9320000C8
:10206000F532000041320000F5320000F532000088
:10207000F5320000F532000051320000F532000068
:10208000F5320000F53200009D280000F532000016
:1020900000000000F5320000F5320000F5320000CB
:1020A000F5320000F5320000F5320000F532000094
:1020B0000000000010B5064C2378002B07D1054B1B
:1020C000002B02D0044800E000BF0123237010BDA4
:1020D0008002002000000000DCAC0000044B10B5C2
:1020E000002B03D00349044800E000BF10BDC046E8
:1020F0000000000084020020DCAC000010B50100EC
:10210000014801F011FD10BDD408002010B50121D7
:10211000042001F009FC0A2001F066F900210420E6
:1021200001F002FC0A2001F05FF910BD10B5034B6D
:1021300003220821024800F01DFC10BD040300200A
:102140009C02002010B5094C200002F061F8002824
:1021500008D0200002F038F9C1B205480A2902D19E
:1021600001F0DAFC10BD01F0D1FCFBE7AC0300206C
:10217000D40800201FB5FFF7C9FF2849684602F0C0
:1021800091F96846FFF7BAFF684602F043F901216A
:102190000D2001F099FB0121042001F095FB0420A2
:1021A000002101F0C1FB1E4C200000F03DFE002884
:1021B00029D01C49684602F075F96846FFF79EFF72
:1021C000684602F027F9184A1849200000F050FC30
:1021D00000280AD11649684602F064F96846FFF7FC
:1021E0008DFF684602F016F9FEE72000142100F08A
:1021F00080FD10220F49684605F0C2FA69462000AA
:1022000000F0F9FD1FBD0C49684602F04BF9684625
:10221000FFF774FF684602F0FDF8FEE750A00000EB
:102220009C02002092A00000CDCC4C3D00C0644434
:10223000BDA0000040A00000E6A0000010B5084CC2
:10224000200002F0DFF90028F9D0E1212000490246
:1022500002F0D6F996210348890101F0B5FE10BDC0
:10226000D4080020AC03002010B5FFF7E7FFFFF70C
:1022700081FF01F083F8014B186010BD00030020BE
:10228000012070478171704741717047C17270477A
:102290000173704741737047837B93431943817384
:1022A0007047C079C0B27047007AC0B27047407AB8
:1022B000C0B27047807AC0B270470020704710B536
:1022C0000400236820005B689847002802D101F0D1
:1022D000ADF8F6E710BD10B504002379032B02D149
:1022E00001F0A4F8F9E7012010BD70B504000E005C
:1022F00001F044F8050001F041F8401BB04208D25B
:10230000236820005B689847002803D101F08EF80D
:10231000F1E7002070BD70B505000E0001F02EF849
:10232000040001F02BF8001BB04205D22B79032BDF
:1023300004D101F07BF8F4E7002070BD0120FCE738
:10234000074BFF2208330360002342710371C272FE
:102350000382027343824373837383827047C04650
:1023600010A1000070477047704770474171704777
:10237000817170470171704710B5034C01710834C9
:1023800004604271837110BD68A1000010B502485D
:1023900000F0ACFE10BDC0462803002010B5024876
:1023A00000F0A9FE10BDC0462803002010B5024869
:1023B00000F0A2FE10BDC0462803002070B583794E
:1023C00004000226002B0AD00026012B07D003367A
:1023D000022B04D0033B1E00731E9E410136274D85
:1023E000280000F0FDFD3100280000F063FE237995
:1023F000042B3DD0032B3DD0022B3DD0013B5A4254
:1024000053411F4A5B4213409B186279013A110005
:1024100050424241481E8141D2B2C9B20020022E30
:1024200006D00230032E03D00130012E00D0023836
:102430001E0A237266721E0C1B0EE3722073A672B4
:102440006273280000F02CFE23793024013BDBB2BC
:10245000032B01D80B4AD45C2100280000F03EFE7B
:10246000280000F0BDFD2800210000F037FE70BDFF
:10247000054BCAE7054BC8E7054BC6E72803002014
:1024800040420F0098A100000024F40000127A00DE
:1024900000093D0010B5024800F0CAFD10BDC0465D
:1024A0002803002010B58168C268024800F0C8FD0A
:1024B00010BDC0462803002010B5024800F0DCFD26
:1024C00010BDC0462803002010B50400FFF754FFDC
:1024D000044B200008332360034BA3600023637385
:1024E000237310BD9CA1000000093D00002310B51E
:1024F0001A0019000148FFF7E7FF10BD0403002090
:1025000072B6BFF35F8FBFF34F8FBFF36F8F0120A2
:10251000704710B5040080690368DB689847207F26
:10252000012101F0D1F9207F012101F0FDF96420A2
:1025300000F05AFF012010BD80F31088BFF35F8FB9
:10254000BFF34F8FBFF36F8FBFF35F8FBFF34F8F1B
:10255000BFF36F8F7047000070B504000D001600C8
:10256000FFF7EEFE034BA6610833257720002360BA
:1025700070BDC046CCA10000F8B504000D00EFF31B
:102580001086FFF7BDFF00281BD0A06903681B6AF7
:102590009847207F002101F0C7F97F21A0692940D9
:1025A00003681B689847A069002103681B68984767
:1025B00001210700207F01F0B7F9A06903685B6A79
:1025C00098473000FFF7B8FF3800F8BDF7B50400B2
:1025D0000E000192EFF31087FFF792FF0025A8424B
:1025E0001BD0A06903681B6A98472900207F01F06F
:1025F0009BF98021A069314303681B689847050057
:10260000A069019903681B689847207F012101F0A8
:102610008BF9A06903685B6A98473800FFF78CFF65
:102620002800FEBDF7B504000F0000920193EFF300
:102630001086FFF765FF0025A84226D0A069036831
:102640001B6A98472900207F01F06EF98021A0695C
:102650004942036839431B68C9B298470500009F87
:10266000019BFB180093009BBB4206D0A069397800
:10267000036801371B689847F5E7207F012101F0C7
:1026800053F9A06903685B6A98473000FFF754FF6D
:102690002800FEBD10B50400007E01F071F9431E54
:1026A0009841E37E584010BD10B5407E01F03CF9E2
:1026B00010BD10B5037F807E594001F035F910BD83
:1026C00010B503790400022B08D00021FFF7F1FFB9
:1026D00000212000FFF7E8FF0223237110BD000056
:1026E000082388101840030010B5064A08339842A2
:1026F00005D0145C8C4203D00130C0B2F7E7002053
:1027000010BDC04624A20000F8B50400FFF7C2FFC8
:10271000002804D0621CD37F0133DBB2D377E27F81
:10272000A31C82424FD0DA7F0B214F2A00D91231ED
:10273000DA7F5218D2B2DA77E077DA7F9F2A41D96E
:10274000A28C611C5208A284CA7F042A04D9802268
:10275000A08C12010243A284DA7FE51C6032D2B25F
:10276000DA770023CB77EB7FDBB2002B46D0E61D78
:10277000F37F0133DBB2F3770B2B23D93F23A18CFB
:1027800020001940FFF7ACFFA18C07008909C9B2EE
:102790002000FFF7A5FF210022006B313F010B78DD
:1027A0003843C0B26A32002B12D110701378062B56
:1027B00002D91378432B0BD90023EB77238A0133FB
:1027C0009BB22382F8BDDA7F1432D2B2DA77B4E753
:1027D0000B78DBB25F1CE3180833FFB20F70D877B9
:1027E00009781378994206D30023EB770133637796
:1027F0002000FFF765FF0023F377E3E7A18C054A8C
:102800009142DFD10122EA77E21D6B34D377237046
:10281000D8E7C046380B0000F7B505006E352F78B5
:1028200004007B1C2B70002F0ED1030002006C33C0
:102830000193FD321B7812789A420BD8FFF740FFC4
:10284000A38A01339BB2A3822B78072B01D90023E3
:102850002B70F7BD0600C3186D366F3319783378C7
:102860005A1C1941012332701940FFF71DFF3378BC
:10287000052BE9D9019B37701B78019A013313703E
:10288000E2E7037910B5042B02D1FFF73DFF10BD3D
:102890000379032BFBD1FFF7BFFFF8E7102310B537
:1028A000044A917B0B439373034B1868FFF7E9FFCE
:1028B00010BDC046002C00421403002072B6BFF3C6
:1028C0005F8FBFF34F8FBFF36F8F012070473C20A6
:1028D000704780F31088BFF35F8FBFF34F8FBFF354
:1028E0006F8FBFF35F8FBFF34F8FBFF36F8F704753
:1028F00010B503790400012B05D000220121FFF758
:1029000065FE01232371012010BDF7B503680400A3
:102910005B680F0015009847061E1DD0002F18D0C9
:10292000002D16D0EFF310830193FFF7C7FF0028A7
:102930000CD0E31CDA7F2978914201D9DB7F2B7020
:1029400021002A782331380004F01AFF0198FFF79C
:10295000C0FF00235F3423703000FEBD10B53D2161
:102960000400FFF709FEFE223D2102402000FFF790
:102970002DFE10BD70B5040015001A00FFF7ECFD28
:10298000034B657708332360024B2000E38370BD5F
:1029900010A30000FF040000F7B50400EFF3108758
:1029A000FFF78CFF00285FD0A06903681B6A984777
:1029B000207F002100F0B8FFA069002103681B6898
:1029C0009847A069002103681B689847061FF3B267
:1029D0003C2B41D8A069002103681B689847A37964
:1029E000E071002B06D1E37962799A4202D0E37953
:1029F000FF2B31D1A069002103681B689847207222
:102A0000A069002103681B6898476072A0690021D3
:102A100003681B6898470022E31CA072DA77E51C64
:102A2000EB7FB34210DAEB7FA069DBB2019303685E
:102A300000211B689847019BE3180433D877EB7F8C
:102A40000133DBB2EB77EAE7638A012201339BB201
:102A5000638223005F331A70207F012100F064FF3E
:102A6000A06903685B6A98473800FFF732FFF7BD3B
:102A700070B50500081C04F09BFD00220E4B03F00E
:102A80001FFF0E4B002203F011FB02F0D5FF0400E4
:102A9000020CD2B228000721FFF798FD220A280075
:102AA000D2B20821FFF792FD2800E2B20921FFF718
:102AB0008DFD012070BDC04680842E4180844E4033
:102AC00070B50D0001210400FFF756FD1C2398434B
:102AD000C2B21D402A4301212000FFF777FD2721C4
:102AE0002000FFF749FD0306F9D570BD10B5037945
:102AF0000400022B13D0831CDB7F5BB2112B08DD9B
:102B000055225A21FFF762FD70225C212000FFF759
:102B10005DFDE17F2000FFF7D3FF0223237110BD8D
:102B200070B504002821FFF727FD23790500032B4A
:102B300008D1030706D52000FFF7D8FFA38A013389
:102B40009BB2A3822379DBB2042B12D11D4210D099
:102B500024212000FFF710FD4010404240B2E073F6
:102B600000F00CFC20662000FFF7C0FF2000FFF7FC
:102B700013FF70BD034B10B51868002801D0FFF794
:102B8000CFFF10BD1C030020034B10B55868002870
:102B900001D0FFF7C5FF10BD1C030020034B10B58B
:102BA0009868002801D0FFF7BBFF10BD1C03002070
:102BB00010B503790400042B18D0831CDB7F5BB2B3
:102BC000112B08DD55225A21FFF700FD70225C21F0
:102BD0002000FFF7FBFC402225212000FFF7F6FC38
:102BE00010212000FFF76CFF0423237110BD10B5E6
:102BF000037904000020032B05D020005F34FFF789
:102C0000D7FF2078C0B210BD10B503790400032BA4
:102C100018D0831CDB7F5BB2112B08DD5D225A21AB
:102C2000FFF7D4FC7C225C212000FFF7CFFC0022C0
:102C300025212000FFF7CAFC0C212000FFF740FFF0
:102C40000323237110BDF7B5040001911500002680
:102C50003C2A4CD803689B6998472000FFF746FF41
:102C6000EFF31087FFF72AFEB04239D0A06903685E
:102C70001B6A98473100207F00F056FEA069802132
:102C800003681B689847A069291D0368C9B21B68BF
:102C90009847A069E17A03681B689847A069217B7F
:102CA00003681B689847A069617B03681B689847A5
:102CB000A069A17B03681B689847019E7519B542FE
:102CC00006D0A0693178036801361B689847F6E79B
:102CD000207F012100F028FEA06903685B6A984705
:102CE0003800FFF7F6FD2000FFF78EFF01263000C9
:102CF000FEBD0A0010B5831C12320EDBD9771F22ED
:102D00009A56D3B20D2A0BDC1F22123313406132C4
:102D10001A431121FFF75AFC10BDEE22DA77EEE7D5
:102D20006021112A05DD0B331A001F231A400A43C4
:102D3000EFE70E330B43DAB2EBE770B50D0004009A
:102D40000A0005230221FFF76DFC6A1D02231921E9
:102D50002000FFF767FCEA7937212000FFF736FCF7
:102D600070BD000013B5040000201B290BD8064BD2
:102D7000C90059180822684604F002FD200069467F
:102D8000FFF7DBFF012016BD36A2000070B505007D
:102D90000C000A0A2C21FFF719FC2800E2B22D21B1
:102DA000FFF714FC70BDF7B517000E002E210500CB
:102DB000FFF7E2FB7B1E04000193002E18D06B4648
:102DC0001B79032B14D832003B002F212800FFF77A
:102DD00029FC802252421443E4B2019B2800DA000D
:102DE00038239C432243D2B22E21FFF7EFFBF7BDDD
:102DF0007F221440F1E710B50A00040000290FD02B
:102E000010233E21FFF70EFC3D212000FFF7B4FB0D
:102E100001220243D2B23D212000FFF7D7FB10BDB3
:102E2000FFF79CFDFBE7000073B50400FFF771FBA3
:102E3000051E02D10025280076BD10212000667FE6
:102E4000FFF79AFB631CD8770138C0B2FD28F1D890
:102E5000607F002100F038FDA37FFF2B06D1294AB7
:102E60001378032BE6D8591C1170A377A37F264A49
:102E700099008C50002B3AD104222449300000F0F4
:102E800089FB2000FFF732FE8F223C212000FFF754
:102E90009DFB30226F212000FFF798FB55225A211D
:102EA0002000FFF793FB70225C212000FFF78EFBD0
:102EB0000222174901A804F063FC022201A92000A4
:102EC000FFF771FF12212000FFF74CFF20000421C3
:102ED000FFF75CFF0F4A10492000FFF7C9FD2000F3
:102EE000FFF73CFD0D212000FFF703FFA3E7012BB7
:102EF00002D104220949C1E7022B9BD104220849CF
:102F0000BCE7C046180300201C030020752B0000FE
:102F100034A20000CDCC4C3D0000D943892B0000E9
:102F20009D2B0000F0B5040085B01E000AAB1B7895
:102F3000103001930BAB1B78170002930CAB1B787E
:102F40000D00039300F024F92000243000F020F954
:102F5000220000234032A363E363137063729D4237
:102F600005D10A4B0A4A22210A4804F091FB6B461C
:102F70001B79200063716B461B7A2560E3716B46F9
:102F80001B7B2771A671237205B0F0BD68A30000FA
:102F9000DDA3000079A30000437A002B04D18372E3
:102FA000C372C36001334372704730B5040085B00B
:102FB00002AD00680291039200F0AAFE6B79227ABA
:102FC000E17900932068002300F0D2FF2979029A6A
:102FD000206800F0F7FE206800F090FE05B030BDDC
:102FE00070B518260400FFF7D7FF330008212079B9
:102FF0000D4D4343EB18595600F0DAFC330008211D
:10300000A0794343EB18595600F0D2FC08216079AF
:103010004643AD19695600F0CBFC044B200006CBAB
:10302000FFF7C3FF70BDC04634A400006C0300204E
:1030300010B50400006800F054FE0023637210BD58
:1030400007B5837A00910192002B07D09A070AD521
:10305000EFF310835A425341C37272B60099019A3A
:10306000FFF7A3FF07BDDB07F8D5C368014A9BB292
:103070009360F3E700180040837A002B05D09A078D
:1030800004D5C37A002B00D062B67047DB07FCD5AD
:10309000C368024A9BB2D360F7E7C04600180040FD
:1030A00010B50068002903D1013100F03BFE10BDCE
:1030B0000021FAE710B50300032908D8080002F040
:1030C000FDFA070B02090021186800F03FFE10BD51
:1030D0000121F9E70221F7E70321F5E710B50068C0
:1030E000012900D8022100F081FE10BD10B5006852
:1030F00000F04CFE10BD7047704700001FB5094A34
:10310000094B0A4913600023537113710293013371
:10311000019316330093162201330548FFF702FF8F
:1031200005B000BD6C03002000093D0034080020FC
:1031300028030020094B1868002809D1EFF31082FA
:103140000749002A08D172B6BFF35F8F01320A70B7
:103150001A6801321A6070470870F9E77803002096
:1031600074030020084B1A68002A0CD01A68013A30
:103170001A601B68002B06D1044B1B78002B02D071
:10318000BFF35F8F62B6704778030020740300209E
:10319000FF23002110B504000370FC3B41708170D7
:1031A000C170017143710C22083004F0F2FA200062
:1031B00010BD000001220B0010B5134008D00D4BCC
:1031C0001A70042343708368002B00D0984710BD09
:1031D0000222114204D007490A704370C368F3E722
:1031E00004231942F3D0034A137003334370036975
:1031F000EAE7C0464E48004110B5FFF79BFF0C4B75
:103200001B8C1B071B0F0B2B0FD80A4A99008858E1
:1032100000280AD00F2408490A78A24313430B70F0
:10322000064B1978C9B2FFF7C5FFFFF79BFF10BD2A
:10323000004800417C0300203F4800414E480041C7
:1032400010B5024800F0FFFF10BDC046AC030020DF
:1032500010B5024800F0F7FF10BDC046E805002099
:10326000F7B501240326154F1549380000F0B0FCCE
:103270001449154800F0ACFC1449154800F0A8FCAE
:103280001449154800F0A4FC1449154800F0A0FCAE
:10329000144D1549280000F09BFC390000962300CE
:1032A00001940022114800F063FF00962900019468
:1032B0001E231F220E4800F05BFFF7BD24080020EC
:1032C00000080042000C00422808002000100042C4
:1032D0002C08002000140042300800200018004292
:1032E0003408002038080020001C0042AC030020F5
:1032F000E8050020FEE70000034B10B51B68002B1B
:1033000000D0984710BDC0463C08002070B50F495A
:103310000F4CA14204D100F08DF800F0ADFBFEE7A8
:103320000C4D00238D42F6D0CA18E818A24205D3EE
:10333000094B8242EFD00949002204E000680433BF
:103340001060F1E704C38B42FCD3E4E700000020E7
:1033500080020020E0AC000080020020C80E0020A7
:1033600010B500F064F8002801D100F055F810BD48
:10337000014B18607047C0463C080020014B18689C
:103380007047C04640080020F7B513480122844624
:103390001249134C8E68636805689B0E13400192B6
:1033A00088686268019F920E3A4067463F68934280
:1033B0000ED1BD420CD186420AD35B19FA2548686A
:1033C000AD00861B07486B437043000DC018FEBD5F
:1033D0003D0013000600E3E74008002010E000E095
:1033E00000ED00E05555000070B5041E10D0FFF749
:1033F000CBFF050000F01AF8FFF7C6FF054B401B96
:103400009842F7D9FA23013C9B00ED18002CF3D128
:1034100070BDC046E703000010B5034A13680133CE
:10342000136000F099FB10BD400800207047002099
:10343000704700001E2270B54648474943689343D1
:103440001C3A1343436008238C6923438B61434C2C
:10345000434B9C829C8A14439C82DC681442FCD0BF
:103460000124404A14701578254203D055786DB276
:10347000002DF8DB01249460547864B2002CFBDB4F
:10348000394C5460547864B2002CFBDB8224E40194
:103490005480547864B2002CFBDB02249C840E34EC
:1034A000DD682542FCD0314CDC621024DD68254209
:1034B000FCD09D8C2E4C2C439C841024DD6825422E
:1034C000FCD002249D8C80262C439C844024DD6803
:1034D0003542FCD0DD682542F9D01024DD68254254
:1034E000FCD000249460547864B2002CFBDB214CA7
:1034F0005460547864B2002CFBDB1C6A1E4D2C40D7
:1035000080251C621C6AAC431C62032393601B4B26
:10351000536053785BB2002BFBDB0023FF240B725C
:10352000174A4B728B72CB72164B1A60164B174AA6
:103530001B6811689A065B01C90E2340520F1202E4
:103540000B431343124A138580234268134343609D
:1035500070BDC04600400041000400400C06000061
:1035600000080040000C004001050100B905FF7D86
:10357000040A000000070300FFFCFFFF0306010030
:10358000006CDC02000000202460800020608000CD
:1035900000400042F7B500921822162542434F4BD7
:1035A00007009B185D5701916B1C4ED04C4B4D4C46
:1035B0001E68002E27D1310044224B4804F0E9F860
:1035C00031004422494804F0E4F81022484B4949AC
:1035D0001E60CA67C021C120474B49005A50800075
:1035E0001958FF36B14319501A60444B444A5A8067
:1035F00002232278134323706378DB09012BFBD06D
:103600000122374B1A6001231E00AE40626932432B
:103610006261019A002A18D0102D1FD1E27813435D
:10362000E370009B042B0BD818000723A2789A4361
:1036300002F044F8030C0E10120005231343A3708C
:103640002A4B019A1A64B6B2E660F7BD0423F5E787
:103650000323F3E70223F1E70123EFE73800002714
:10366000002100F0A5F9224B1F499C461B68BA00B7
:10367000BB421DD16046013303608E501B4B019944
:103680009950072D19DD0123083DAD000721A94000
:10369000144A9B009B189A698A439A61009A042AEB
:1036A000D1D81000996902F009F80B101214160015
:1036B0008858B042E1D00137D9E7AD000023E5E7F3
:1036C0000522AA400A439A61BDE70422F9E70322D2
:1036D000F7E70222F5E70122F3E7C04634A4000031
:1036E000CC08002000180040880800204408002072
:1036F000D008002004E100E000E100E0000C004000
:1037000005400000F8B50024094B1B68A34200D80F
:10371000F8BD084E084FA5003369EA591A4204D093
:10372000064BEB589847EB5933610134ECE7C04640
:10373000D00800200018004088080020440800201D
:10374000054B10B51B6C002B00D098470123034A92
:10375000D1780B43D37010BD4408002000180040FE
:10376000FA212D4B10B51868890001F0B1FF2B4BE1
:10377000013898424FD82A492A4A4860C020136A23
:1037800000061B021B0A0343136200238B600733EE
:103790000B608021136A09061B021B0A0B4313628C
:1037A000FC22214B196A0A431A62FF22196A12028B
:1037B0000A431A62A022196AD2020A431A621B4BF8
:1037C0001C005A7852B2002AFBDB194A5A80194B66
:1037D0001A00597EC9090129FBD0C82189009980A6
:1037E0000521D970537EDB09012BFBD0C0230020BB
:1037F0005B011361907000F023F863785BB2002BDB
:10380000FBDB0D4B0D4A6380D379DB09012BFBD029
:103810004123537010BDFEE700000020FFFFFF00B2
:1038200010E000E000ED00E000040040000C00406B
:103830001E400000004000422140000000480042BD
:103840001F4900B50B004A7ED209012AFBD001387E
:103850000A282FD801F032FF1B2E2E2E2E2E062ED8
:103860002E2411001A6917490A400F211A615A784B
:103870008A43110001220A4310E01A6911490A40E3
:103880000F211A615A788A4311000322F3E71A695B
:103890000C490A400F211A615A788A435A7000BDB8
:1038A0001A6908490A400F211A615A788A4311009F
:1038B0000222E0E7F022196912050A43F3E7C04645
:1038C00000400042FFFFFFF0182310B508244343D7
:1038D000134AD0180457013412D001249A56436871
:1038E0009C4003290CD808000E49D2015218D31865
:1038F000403301F0E3FE0210060B02211970546000
:1039000010BD0621197054609461F9E70621197001
:1039100054605461F4E7022119709460F0E7C046E6
:1039200034A40000004400411823F0B50824584393
:10393000114A13181C5701341BD0012635005F684B
:103940008356BD400D4ADB019A18906805420BD1A1
:103950000C00601E8441D219403210783440033686
:10396000A400B04320431070044A9B18002901D1E1
:103970005D61F0BD9D61FCE734A40000004400419E
:10398000182310B50824434307490020CA181457C8
:10399000013408D05B560549DB015B18186A53688F
:1039A000D8400123184010BD34A400000044004159
:1039B0001822424370B52D4E0300B218127A52B24B
:1039C000140001320ED0481C00240C280AD801F043
:1039D00075FE071F1F1F1F1F1F1F1F0B0B0B0B0049
:1039E00001246442200070BD092905D1002118007E
:1039F000FFF76AFF0024F5E70A2901D10839F6E745
:103A000000240B29EED10A391800FFF75DFFE9E722
:103A1000182201205343F218F3565568144ADB016B
:103A20006C089B18C9B228401C1900280ED00F2022
:103A3000303422780901024011434122C9B25B1996
:103A40002170403319780A431A70D3E722000F26F9
:103A5000303214785B19B443214311704122403352
:103A6000197804000A431A70BCE7C04634A4000069
:103A700000440041FEE7704710B5FFF771FE03F008
:103A800035FEFFF7F8FF0120FFF7AEFC094C2000E0
:103A900001F012F8200001F089F8FEF7E5FBFEF7CF
:103AA00051FBFFF7C3FC044B002BF8D000E000BF34
:103AB000F5E7C046F008002000000000F7B506005A
:103AC0000D000C008B180193019B671B9C4207D0D3
:103AD000336821781B683000984701340028F3D1FF
:103AE0003800FEBD70B5040008000D0004F0C2FCF3
:103AF0002368020029005B682000984770BD10B55C
:103B000003688A685B680968984710BD10B5036848
:103B10001B68984710BD000010B50249FFF7E2FF8F
:103B200010BDC04684A8000070B50500FFF7E7FF90
:103B300004002800FFF7F0FF201870BD014B18604B
:103B40007047C046040000200122024B52421A6016
:103B50007047C04604000020164A10B51368591C6F
:103B600026D0013B1360002B22D172B6124B134AB0
:103B70000433934213D9124A01211000147D0C42E0
:103B8000FCD02021148BFF319B085B002143118363
:103B9000D3610C4B13800123027D1A42FCD0BFF38A
:103BA0004F8F094B094ADA60BFF34F8FC046FDE7DC
:103BB00010BDC046040000200020000003020000E9
:103BC0000040004102A5FFFF00ED00E00400FA05FF
:103BD000016070479446F0B59E1E721E9641624683
:103BE000056892072F6836063A4332432A60072554
:103BF00005AC24780068A4012940214342680024D0
:103C0000022B00D05C03114321434160F0BD30B56D
:103C1000C0250368AD031C6812052A402243C02456
:103C20000904A40221401143196003685A6814432F
:103C30005C6030BD0123026811680B4313600368A8
:103C40001A68D207FCD4DA69D207F9D47047022384
:103C5000026811680B4313600268D3699B07FCD4A8
:103C6000704703681A7ED20702D41A7E9207FCD5E9
:103C70007047002203685A8370470368187E400724
:103C8000C00F70470368187EC00970478023026820
:103C90005B42117E0B43137670470368588B800795
:103CA000C00F704702230268518B0B435383704748
:103CB0000368187EC007C00F70470368188DC0B234
:103CC000704703681A7ED207FCD589B20120198596
:103CD0007047012203689A757047012203681A75BC
:103CE00070470123026811680B43136003681A6868
:103CF000D207FCD4DA69D207F9D4704702230268EC
:103D000011680B4313600268D3699B07FCD47047AA
:103D10000368DA699207FCD402211A688A431A60A0
:103D20007047000070B504000D00FFF7F1FF01229D
:103D3000236815401968044AAD07114029431960EA
:103D40002000FFF7DBFF70BDFFFFFFBF70B501264E
:103D500004000D00F14035400E40FFF7D9FF236805
:103D6000084A1968760711403143196022680649EC
:103D700013682D070B402B4313602000FFF7BEFF95
:103D800070BDC046FFFFFFDFFFFFFFEF0268936AD1
:103D90005B0A5B021943916203681A7E5207FCD5E5
:103DA000986AC0B27047000010B54900044801F09D
:103DB0008FFC80B2002801D0013880B2C0B210BDA3
:103DC000006CDC0270B54B080C00012105680B404B
:103DD0000C402E6824075B07234333432B601100FC
:103DE0000468FFF7E1FF207370BD000070B50E009E
:103DF0000400FFF78DFF3100064801F069FC010067
:103E00002000FFF7D1FF256828732000FFF776FF19
:103E100070BDC046006CDC020368104A934213D0A8
:103E20000F4A934212D00F4A934211D00E4A934246
:103E300010D00E4A93420FD001200D4A40429342C7
:103E400001D1063040B270470020FBE70120F9E7BE
:103E50000220F7E70320F5E70420F3E7000800421B
:103E6000000C004200100042001400420018004202
:103E7000001C0042F8B5FFF7CFFF00282EDBC3007F
:103E80001C481F22C01805230579C35601201A407B
:103E900090400326C022184952001E40F600885068
:103EA000813AB240C024D243B440002B17DA0F2627
:103EB0003340083B114E9B089B009B19DE69324042
:103EC0001443DC613F231D408023DB011D430C4B69
:103ED00008605D805A7852B2002AFBDBF8BD064EBE
:103EE0009B089B009B19C026B6009F593A4014437B
:103EF0009C51E7E788A8000000E100E000ED00E049
:103F0000000C0040F8B504000F0016001D00FFF77C
:103F1000B1FF2000FFF78EFE1C21BB000B40710794
:103F20002268090C0B431360842322689375012FC8
:103F30001AD11021012E00D008390C4B69431868A2
:103F4000C00001F0C5FB0722216802408B895203A3
:103F5000DB04DB0C13438B81226803049089DB0CA8
:103F6000400B400318439081F8BDC046000000207C
:103F7000F7B50500019308AB1F780E001400FFF79A
:103F8000B0FE2800FFF776FFC022240592031440FC
:103F9000BA070C2717433C43C02707223604BF0249
:103FA0002B683E4026431E60019B296813401A007F
:103FB00080239B0213434B602A68D3695B07FCD4C0
:103FC000F7BD01207047000010B50368014A1B6A65
:103FD000984710BD130400000300FC33D9699A69A7
:103FE000914203D0DB69C018007D70470120404238
:103FF000FBE710B504000069FFF71CFE2200002358
:10400000FC329361D36186229200A4186360A3609E
:1040100010BDF02001403039484248417047F0233C
:104020001B011940802306209B0099420AD00133CE
:10403000FF330130994205D0802302385B0099425A
:1040400000D0002070470F2001400020012903D03C
:104050000239481E8141481C704700008923F0B591
:10406000182685B002919B000400C05C3300082133
:104070004343324D1700EB185956FFF799FC304B6C
:104080000821E05C33004343EB185956FFF790FCDE
:104090002C4BE25C0393022A09D11133E05CFF2828
:1040A00005D008214643AE197156FFF781FC8A26D8
:1040B000B600A05DFF2819D00121FFF705FC1822EA
:1040C000A35D21495A43AB56AD18DB0158188B212B
:1040D000890060501D4901225B188C2189006350C2
:1040E00069688A408D21890062501A600122029B12
:1040F00011002069FFF706FF39002000FFF78FFF4E
:10410000390005002000FFF79EFF3900060020005F
:10411000FFF77FFF33000090290020690122FFF79D
:1041200059FD0B4B2069E25C039BE15CFFF76FFDDF
:104130002069FFF78CFD05B0F0BDC04634A4000037
:1041400025020000270200001844004114440041E9
:1041500026020000802210B504005200002103F066
:1041600018FB23000022FC335A6020009A6010BD27
:10417000F7B51D0008AB1B780400009309AB1B7852
:104180001600019300234360FA239B008360114BC8
:104190000F00083303601430FFF7DCFF20001D30F0
:1041A000FF30FFF7D7FF89236A469B002761E6545B
:1041B000094B1278E554094B2000E2546A46084B3B
:1041C0001279E2548A22293BFF3B9200A354103219
:1041D000A354FEBDB8A8000025020000260200007E
:1041E000270200000300FC3358689B68C01A01D501
:1041F0000130FF30704710B5040020001D30FF3043
:10420000FFF7F0FF0028F8D12069FFF72AFD10BD65
:1042100010B51430FFF7E6FF10BD0300FC335968FA
:104220009A68914204DB5A689868801AFF30704798
:1042300098685B68C01A0138F9E710B51D30FF3087
:10424000FFF7EBFF10BD10B504000069FFF725FD77
:10425000002805D02069FFF730FD2069FFF722FD17
:104260002069FFF70AFD002820D02069FFF725FD0F
:104270002200FC329369D1690133DBB28B4203D057
:1042800091696118087593618A239B00E35CFF2B99
:104290000CD020001430FFF7C0FF092806DC8B2368
:1042A0008D229B009200E358A2581A602069FFF704
:1042B000FFFC00281AD020001D30FF30FFF792FFCE
:1042C000002822D086239B00E31899685A689142FF
:1042D00018D08E219A684900A218515C9A68013260
:1042E000D2B29A60C9B22069FFF7EBFC2069FFF7F0
:1042F000C9FC002805D02069FFF7C8FC2069FFF73A
:10430000B8FC10BD01214942ECE72069FFF7E5FC4C
:10431000ECE7000070B5040000690D00FFF7C8FC71
:1043200000283ED1FF2686239B00E3185A6899682F
:10433000013232408A4223D1EFF31083DB0710D4DD
:104340001E4B5B68DB05DB0DEDD0103B5BB2002B39
:1043500010DA0F221340083B9B08194A9B009B1858
:104360001B682069FFF7A4FC0028DCD02000FFF7C1
:104370006AFFD8E79B08C033124A9B009B58F0E7BE
:104380005A68013216409A68964205D08E215A68C2
:104390004900A21855545E602069FFF79AFC01207D
:1043A00070BD20001D30FF30FFF71CFF0028B9D181
:1043B00029002069FFF785FCF1E7C04600ED00E029
:1043C0001CED00E000E100E0030070B5FC33D969AA
:1043D0009A69040091421AD0DA698218157DDA6967
:1043E0000132D2B2DA618A239B00E35CFF2B0CD04E
:1043F00020001430FFF711FF0A2806DD8C238D22E0
:104400009B009200E358A2581A60280070BD012555
:104410006D42E8E710B50400006803F095F920004C
:1044200010BD10B504000068002801D003F08CF91D
:1044300000232360A360636010BD70B504000D000D
:104440000068013103F0F2FF031E01D0012028C4EF
:1044500070BD036810B50400002B04D043688B4284
:1044600001D3012010BD2000FFF7E7FF0028F9D09D
:10447000A368002BF5D122681370F2E770B50E0027
:10448000110004001500FFF7E4FF002804D120000C
:10449000FFF7C7FF200070BDA5603100206803F062
:1044A000E1FFF7E7002370B504000D0003604360EF
:1044B0008360994207D0080003F0DCFF2900020066
:1044C0002000FFF7DBFF200070BD3F20704713B5D1
:1044D0006B460268D9710733546819000122A0475E
:1044E00016BD10B50221006900F04EFC10BD10B5DC
:1044F0000321006900F05EFC10BD000010B5130040
:10450000084A0400D279002A03D101230020636005
:1045100010BD0A000069032100F044FD0028F4D01A
:10452000F6E7C0460C00002010B5054C23685A1C65
:1045300004D103685B69984703002060180010BD30
:1045400058000020074B0200186810B5411C03D02A
:10455000012252421A6010BD0221106900F014FDC0
:10456000F9E7C0465800002010B503784222023314
:1045700003700249024800F0C1FD10BD1400002084
:10458000F008002010B50178020043780020A1292E
:1045900008D1212B05D107221649174800F0AEFD9E
:1045A000012010BD2129FCD1202B13D10722114954
:1045B000114800F043FC96220E4BD200196891423C
:1045C0000ED10124D87904400AD1FA20FFF7B6FAB7
:1045D0000020E6E7222B06D19278064BDA71EAE753
:1045E000FFF7B2FAF4E7232BDBD15288034B1A60B2
:1045F000D7E7C0460C000020F0080020080000208B
:104600007047000010B5FEF7B9FEF423FF33002415
:10461000984207D9044B0A20DC79631E9C41E4B21E
:10462000FEF7E2FE200010BD0C000020FA2200215F
:10463000054B92009A60054A596008321A60044A94
:1046400019761A617047C046D4080020ECA8000013
:10465000F0080020704770B50F26CB1D013902000D
:104660003240D5B22C0000093034092A00DD07346D
:104670001C70013B8B42F2D170BD10B50400806903
:1046800003F062F8A06A03F05FF8200010BD10B5D7
:104690000400FFF7F2FF200000F07EFF200010BDB5
:1046A00070B5032908D1324B8000C058002802D0D1
:1046B0000368DB68984770BD82291FD1C3B22D4DB6
:1046C0005A01AA1891692C4C80010C40C02189051F
:1046D00021439161294908334018802150612A689B
:1046E0005B01D01804794942214301717020995C23
:1046F00081430800302101439954DCE70029DAD1D5
:10470000C024C1B21B4E4A01B21893681A4DA405C9
:104710002B40234393601A4B8001C0180B0050605C
:104720003068072608335B01195CB1430E00012194
:104730003143195491690D402C43946170240F4901
:104740005161195CA1430C00102121431954916857
:104750000C4CC3180C40802149032143916091689F
:10476000890B89039160402259790A435A71A2E763
:10477000F4080020A80D0020FFFFFF8F1C09002077
:10478000DC0A0020FF3F00F0EFF3108303600123F9
:10479000436072B670470368002B02D162B6BFF364
:1047A0006F8F704737B5056904006846002D14D136
:1047B000FFF7EAFF019B621D013B02D3D57FEDB2FB
:1047C000FAE768460193FFF7E6FF002D01D10020CC
:1047D0003EBD206AE369C01AFAE7FFF7D5FF220061
:1047E0000025019B3432013B02D31578EDB2FAE784
:1047F00068460193FFF7CFFF002DE8D0206BE36AF6
:10480000E9E70000FF2130B54368164D1A68836858
:104810000B405B01D21801235218947A2343937200
:10482000836842680B405B01D418C268A368920495
:104830002B4012091343A360836842680B405B015D
:10484000D3189A68920B92039A6043681A68836837
:104850000B4008335B01D318402219790A431A71BF
:1048600030BDC046FF3F00F0F7B5036904000E00FD
:1048700017006846002B45D1FFF786FF019B611D9D
:10488000013B5A1C0CD0CD7F5A1EEDB2002D05D134
:1048900068460193FFF77FFF2800FEBD1300F0E795
:1048A000684601930025FFF776FFE369AF420AD01F
:1048B000226A9A4207D95A1CE261A269D3181B786E
:1048C00073550135F1E7226A9A42E5D10023E3618D
:1048D000013323616846FFF757FF22000021019B47
:1048E000671D013B3532581CD2D0F97710785E1E17
:1048F000002805D0117020000193FFF783FFECE73B
:104900003300F0E7FFF740FF2100019B3431013B0A
:104910005A1C06D00D785A1EEDB2002DB8D01300E7
:10492000F6E7684601930025FFF735FFE36ABD42CD
:1049300002D0226B9A421CD8226B9A42ACD100233F
:104940006846E3622361FFF71FFF27002200002172
:10495000019B3437013B3532581C99D0397010789F
:104960005E1E00280DD0117020000193FFF74AFF52
:10497000EBE75A1CE262A26AD3181B787355013523
:10498000D4E73300E8E7F7B5FF21826843680A40BF
:104990001B68083252019A18D3790400DB072AD524
:1049A0000125D571836842680B405B01D3189A6872
:1049B00040699204920C002821D12262226A002AC6
:1049C0003ED0A26A656168465A60FFF7DDFE2700A7
:1049D0002100019B661D013B343735315A1C2BD019
:1049E000F5773A78581ED2B2002A05D0019368466E
:1049F0000D70FFF7D0FEF7BD0A700300EEE72263EB
:104A0000226B002A1CD000226261A26968465A60AB
:104A1000FFF7BAFE26002100019B3436013B671DDB
:104A200035315A1C08D03570FA7F581ED2B2002A90
:104A3000DCD10A700300F4E768460193FFF7ABFE90
:104A40002000FFF7DFFED6E737B56B46DC1D0023FD
:104A50000D0020002370FFF787FD2B6818182860D1
:104A600000F0D2FD210000F09BFD2B681818286093
:104A700020783EBD03290ED180220E4B62311B6887
:104A8000FF31585C524202435A5468226339FF3264
:104A9000FF39995470470129FCD18022054B2431FC
:104AA0001B68FF31585C524202435A542822233972
:104AB000FF32EDE7A80D002070B50025304B012135
:104AC00004001A201D70FEF7FFFE01211A20FEF7D8
:104AD0002BFF2C4B012119201D70FEF7F5FE012143
:104AE0001920FEF721FF2023274A0F20D1690B430D
:104AF000D361012225490B7813430B70244B19789D
:104B00008143197006211D782943197021490D78B8
:104B10002A430A701A7802401A70602219780A43F0
:104B20001A701D4B1D4A5A805A78D209FCD11C4874
:104B3000FEF71EFC1B4D280000F078FD280000F059
:104B40008DFD7F212A68C120137880000B401370EF
:104B500004232A6811780B430C2113702A681389E7
:104B60008B43114913810B581B021B0A0B508023E6
:104B70000B6011787E3B0B4313700123237070BDD3
:104B80001109002010090020000400405844004191
:104B90003C44004159440041000C004006400000E4
:104BA00071550000A80D002000E100E00078002809
:104BB00010D00121084B1B681A898A431A810822E8
:104BC000198B0A431A830422198B0A431A83002281
:104BD000024B1A607047C046A80D0020A00D0020AF
:104BE00010B50F4A93699B0B9B03936113680222D4
:104BF000FF331A729879823A02439A711A7A9207AD
:104C0000FCD57F24074A2140937A0800A34319006A
:104C1000802301439172917A5B420B43937210BDE2
:104C2000A80D00200050004110B50B790C00002B9E
:104C30000CD10800FFF7A6FC002801D0012010BD10
:104C4000094A93699B0B9B039361F7E700F0DCFC37
:104C5000210000F0C9FC0028F0D1034A93699B0BA6
:104C60009B039361EBE7C046A80D0020F8B50D004B
:104C7000832A19D1CBB2364C5A01A2189169354812
:104C8000AD010840C0218905014391613249206886
:104C90006D187021083355615B011A5C8A4311005D
:104CA00040220A431A54F8BD022A4CD12B4A8B00E9
:104CB0009858002802D003685B699847382000F0B4
:104CC00067FC274B802703600023214E7F00421D95
:104CD000036203614361C36146608560C760D37747
:104CE0002F320400C362036313703800537002F064
:104CF00021FDA061380002F01DFD2A00A062FF2006
:104D00000240510171188B68124FAD001F40C02343
:104D10009B053B438B6013003168072608335B011A
:104D20005A5CB2431600032232435A54A3686268A5
:104D300003405B01D318A26920005A60FFF762FDAF
:104D4000064B5C51AFE711002800FFF7A9FCAAE76A
:104D5000A80D0020FFFFFF8F1C090020F408002091
:104D600018A9000070B505000124064BA200D25816
:104D7000002A05D021002800FFF778FF0134F4E76E
:104D800070BDC0465C000020084B8A00D05810B5AA
:104D9000002803D003689B68984710BDC9B2044B34
:104DA0004901591888688004800CF6E7F40800204F
:104DB000A80D002010B50C00FFF7E6FF00280CD06E
:104DC000064BE4B21B68083464011C198023627925
:104DD0005B42134363710223E37110BDA80D0020F1
:104DE00070B5CBB2124A13485C01890189180219C7
:104DF00051609168104D08330D408021890229438C
:104E0000402591609168890B8903916001685A017E
:104E10008A1816793543157195796D06FCD55B01B5
:104E2000C918CB79DB07FCD500198068C0B270BD0A
:104E3000DC0A0020A80D0020FF3F00F070B5140030
:104E400040220B4B0D001B68FF3359790A435A71FE
:104E50000021FFF7C5FFA04200D92000002305492B
:104E6000A34203D0CA5CEA540133F9E770BDC046DF
:104E7000A80D0020DC0A002010B5C9B20B4849017A
:104E8000421893689B049B0C3F2B0BD99468403BC2
:104E90009B04A40B9B0CA4032343936041188868D4
:104EA000C0B210BD93689B0B9B03F6E7A80D0020D2
:104EB000F0B51C002F4B85B01B6806000D00019259
:104EC000002B54D02C4F3978C9B2002902D11920B7
:104ED000FEF72AFD64233B70284BAA00D058002817
:104EE00008D0036822005B680199984704002000FD
:104EF00005B0F0BD29003000FFF746FF844204D919
:104F000029003000FFF740FF040029003000FFF7C0
:104F1000B3FF0121EBB21A4F03935B010293029A94
:104F20003B6801989B18FF335A7A0A435A72154B13
:104F3000A901C918220002F023FC002CD7D02900B7
:104F40003000FFF721FF0028D1D14021039B3A68B0
:104F500008335B01D3181879014319710121D97104
:104F6000029BD318FF339A7A0A439A72BFE701244F
:104F70006442BCE7A00D002010090020F4080020C6
:104F8000A80D0020DC0A002013B56B46DC1D2200B2
:104F90000123FFF78DFF012801D1207816BD0120E4
:104FA0004042FBE7F0B51E003A4B85B01B680F008E
:104FB0000192002B3FD08023DB019E423BD8364C30
:104FC0002178C9B2002902D11A20FEF7ADFC642372
:104FD00000252370314BBA01D3180293002E2CD038
:104FE0002F4B1B680393FF233B401C0000930834A6
:104FF000039B64011C19A379DB0921D0294B2A49A1
:10500000186800F065FB294B1721584300F060FB3E
:10501000274BE279920713D4DA5D002A01D10138D7
:10502000F7D20122DA55009B5A011D4B9B189A6951
:10503000920B92039A6101256D42280005B0F0BDE4
:1050400000221B4B3400DA55402E00D940242200A8
:105050000199029802F094FB009BA1045A01104BA5
:10506000890C9B18029A2D195A619A69361B920B6A
:1050700092030A439A61009B039A08335B01D31899
:105080000222DA715979823A0A435A71019B1B193B
:105090000193A3E7A00D0020110900201C090020A6
:1050A000A80D00200000002040420F0070110100F8
:1050B0001309002070B50D001C000D4BAE01F61851
:1050C00011003000220002F05BFBEDB209496D01D6
:1050D0004D196E61AB69084A20001340AB61AB69A2
:1050E000A2049B0B920C9B031343AB6170BDC046A3
:1050F0001C090020A80D0020FF3F00F0F7B5104B61
:1051000001901B780F001500002B0CD10D4B1600E1
:105110001C78002C09D00C4E0C48348820186419D7
:1051200002F02EFB34802800FEBD002EFBD03A1981
:10513000330000210198FFF7BDFF2418361AF4E769
:105140009C0C00209D0D00209E0D00209D0C002039
:10515000F8B5002000AF0E001500012A27D9D31D95
:105160006A46DB08DB00D31A9D46080003F082F98B
:105170006C4603230222002101304000207063703E
:10518000AA420DD2307800280AD0531CDBB2013677
:10519000A0549D4203D00232E154D2B2F0E72A007B
:1051A00021000448FFF7AAFF431E9841C0B2BD4644
:1051B000F8BDC046F0080020F0B50024012685B0F7
:1051C000184B0F0069461E7005000094FFF73CFC69
:1051D000154B01A90B806A3BFF3BCB716E3B0B72F9
:1051E000009B8C7109334B800E4B4E7108711C7003
:1051F0003A00092F0FD00D4F09223E700C4E2800A7
:1052000000943480FFF77AFF69462800FFF71CFC02
:10521000328808493C702800FFF770FF012005B074
:10522000F0BDC0469C0C0020090200009D0D00202E
:105230009E0D00209D0C0020F0B5CF7893B00500A6
:105240000E00022F09D1C9882B48FFF7B5FF441E75
:10525000A041C4B2200013B0F0BD00F0D5F9310078
:1052600000F0B2F9002803D0C417241AE40FF1E7C4
:10527000012F0BD1F2882149112A11D8D2B2002A6C
:105280000ED02800FFF73AFF0124E3E70400032FC4
:10529000E0D1B378002B05D1F2881949032AEDD962
:1052A0000A78EEE7022B06D1B27916492800FFF7FB
:1052B0004FFF0400CEE7012B02D1B2791249F5E786
:1052C000032BC7D1114B01A91868FFF7C4F9104B84
:1052D00003A91868FFF7BFF90E4B05A91868FFF777
:1052E000BAF90D4B07A91868FFF7B5F96B460533F6
:1052F000DC77B27901A9D9E7F008002049A90000BC
:105300003CA9000030A9000040A900000CA08000CA
:1053100040A0800044A0800048A0800037B5050070
:1053200048780C000B2810D800F0C8F9061B0F2B8A
:105330000F41466E4A4D676A097801AA002906D1D5
:10534000022311802800FFF7B5FE01203EBD002397
:1053500013802E4B1B78012B00D1137002230021E8
:10536000F0E78A780023012A03D101AA1380284B91
:10537000F0E7264A1370274A93699B0B9B039361BE
:10538000E3E78C78012C06D10021214B01AA1C7087
:1053900011702300D6E700208442D7D11B4B013087
:1053A0001C4A187093699B0B9B039361CEE7897825
:1053B0002800FFF715FCC8E72800FFF73DFFC5E709
:1053C0000123154ACBE70B780020DB06BED128006D
:1053D000FFF7C8FC2A200221A2780F4BFF301A6089
:1053E0000C4A13681C5C21434A241954FF34195D8C
:1053F0002938FF3801431955D4E70123074AAEE79E
:105400008A78064B1A60B6E700209FE71209002051
:105410001A090020A80D0020A00D0020A40D0020D6
:105420004B4BF7B51C780700002C00D083E0494EA9
:1054300033689B8B1B070ED521002000FFF730F946
:10544000326810231100FF31887A03438B72424B7C
:105450001C600823938333689A8B52071FD504225C
:105460009A833E4A1378002B0AD01378013BDBB2B3
:1054700013701378002B03D101211A20FEF754FA80
:10548000374A1378002B0AD01378013BDBB2137034
:105490001378002B03D101211920FEF745FA336858
:1054A000FF331A7AD2061ED510221A725979303279
:1054B0000A435A7160232B4938000A781A423BD1BB
:1054C000FFF72CFF3368FF33002838D0802299790A
:1054D00052420A439A711A7A520604D540221A722D
:1054E000597A0A435A72336800241D8C01239D4364
:1054F000EDB20193E1B2002D1DD02B002341019AA2
:10550000134215D02300326808335B01D318DA79CF
:10551000D20702D4DB799B0707D5134BA200D058E2
:10552000002810D003681B689847019BA3409D4347
:105530000134092CDED1F7BDFFF776FBC2E720214D
:105540000A4A9171C7E73800FFF794FAEDE7C046C1
:105550009D0D0020A80D0020A00D002011090020A5
:1055600010090020DC0A0020F4080020FF50004150
:1055700010B50248FFF754FF10BDC046F0080020E8
:10558000014B024A1A607047A80D002000500041EC
:1055900010B502F0CFF810BD10B502F0D5F810BD6F
:1055A00070B50E0000254468002C0BD02368310034
:1055B0005B6820009847002802DB2D18E468F3E7B9
:1055C00001256D42280070BD70B50D004468002CA7
:1055D00008D0236829009B6820009847002802D142
:1055E000E468F4E7200070BD70B50D004468002C3D
:1055F00008D0236829001B6820009847002802D1A2
:10560000E468F4E7200070BD0121054A10B5136875
:1056100004480B4003D1044C43600480116010BD6A
:10562000AC0E0020B00E00200204000070B5040093
:10563000012304CC0500117820000B431370802255
:105640000021520002F0A5F82B689A78D207FCD40A
:105650009A789207F9D45C6270BD00001F22144B47
:10566000F0B51B68590B9C0C9B01114014405B0F5B
:10567000914200D105211F2C00D1023C072B00D103
:10568000043B02688F01158D0A491F2629403943C2
:10569000118505683440298D0A00B24322432A85CA
:1056A00000681903028D044B13400B430385F0BDC2
:1056B000246080003FF8FFFFFF8FFFFF02B47146B8
:1056C00049084900095C49008E4402BC7047C04645
:1056D000002243088B4274D303098B425FD3030A31
:1056E0008B4244D3030B8B4228D3030C8B420DD344
:1056F000FF22090212BA030C8B4202D312120902D2
:1057000065D0030B8B4219D300E0090AC30B8B420F
:1057100001D3CB03C01A5241830B8B4201D38B03BD
:10572000C01A5241430B8B4201D34B03C01A524162
:10573000030B8B4201D30B03C01A5241C30A8B42A5
:1057400001D3CB02C01A5241830A8B4201D38B0290
:10575000C01A5241430A8B4201D34B02C01A524134
:10576000030A8B4201D30B02C01A5241CDD2C309A6
:105770008B4201D3CB01C01A524183098B4201D322
:105780008B01C01A524143098B4201D34B01C01A0D
:10579000524103098B4201D30B01C01A5241C30885
:1057A0008B4201D3CB00C01A524183088B4201D3F4
:1057B0008B00C01A524143088B4201D34B00C01AE0
:1057C0005241411A00D20146524110467047FFE74C
:1057D00001B5002000F0F0F802BDC0460029F7D066
:1057E00076E7704703460B437FD4002243088B4281
:1057F00074D303098B425FD3030A8B4244D3030B58
:105800008B4228D3030C8B420DD3FF22090212BA1C
:10581000030C8B4202D31212090265D0030B8B4298
:1058200019D300E0090AC30B8B4201D3CB03C01A82
:105830005241830B8B4201D38B03C01A5241430B5D
:105840008B4201D34B03C01A5241030B8B4201D34D
:105850000B03C01A5241C30A8B4201D3CB02C01AB8
:105860005241830A8B4201D38B02C01A5241430A30
:105870008B4201D34B02C01A5241030A8B4201D31F
:105880000B02C01A5241CDD2C3098B4201D3CB01C6
:10589000C01A524183098B4201D38B01C01A524175
:1058A00043098B4201D34B01C01A524103098B4279
:1058B00001D30B01C01A5241C3088B4201D3CB0064
:1058C000C01A524183088B4201D38B00C01A524147
:1058D00043088B4201D34B00C01A5241411A00D2F7
:1058E00001465241104670475DE0CA0F00D0494260
:1058F000031000D34042534000229C4603098B42D0
:105900002DD3030A8B4212D3FC22890112BA030A57
:105910008B420CD3890192118B4208D389019211D9
:105920008B4204D389013AD0921100E08909C3095E
:105930008B4201D3CB01C01A524183098B4201D360
:105940008B01C01A524143098B4201D34B01C01A4B
:10595000524103098B4201D30B01C01A5241C308C3
:105960008B4201D3CB00C01A524183088B4201D332
:105970008B00C01A5241D9D243088B4201D34B004D
:10598000C01A5241411A00D20146634652415B108F
:10599000104601D34042002B00D549427047634670
:1059A0005B1000D3404201B5002000F005F802BDB5
:1059B0000029F8D016E770477047C0468446101C8F
:1059C00062468C46191C634600E0C0461FB500F0D5
:1059D0000FFF002801D40021C8421FBD10B500F000
:1059E00067FE4042013010BD10B500F001FF0028F5
:1059F00001DB002010BD012010BDC04610B500F035
:105A0000F7FE002801DD002010BD012010BDC046BA
:105A100010B500F089FE002801DC002010BD012037
:105A200010BDC04610B500F07FFE002801DA00204E
:105A300010BD012010BDC04670B500220C4B040003
:105A40000D00FFF7EFFF002804D12000290001F02E
:105A50000DFD70BD064B00222000290001F0A2F9C7
:105A600001F004FD80231B069C466044F1E7C0461C
:105A70000000E041F0B54F464646D6460C0009030B
:105A8000C0B5490A470F5E0039431F03DB0F9C4630
:105A900065007B0A570F1F436D0DE40F760DA1467D
:105AA000C000B846D200AB1B64457BD0002B5FDD45
:105AB000002E00D0A4E03E00164300D112E15E1E8D
:105AC000002E00D09EE1871A4346B842804101254E
:105AD000C91A4042091A0B0200D431E149024E0AA8
:105AE000002E00D16EE1300001F0B4FD0300083B50
:105AF0001F2B00DD61E120223900D21A9E40D140E7
:105B00009F400E439D4200DD51E15D1B6B1C1F2B2E
:105B100000DD7CE12021C91A3D0030008F40884023
:105B2000DD40791E8F41310007222843D9400025EE
:105B300007433A40002A09D00F233B40042B05D0ED
:105B40003B1DBB42BF417F42C9191F000B0200D45D
:105B500026E26A1CC64B55056D0D9A4200D106E13E
:105B6000C44AFF080A40530752023B43120B8EE01F
:105B7000002B00D0B8E06B1C5B055B0D012B00DC3B
:105B800030E1871A4346B842B641CB1A76429E1B93
:105B9000330200D54CE13B003343A1D10022002465
:105BA000002570E0002B00DCE5E0002E00D183E052
:105BB000AF4EB54260D0802636043743B846382B06
:105BC00000DC3EE1434613431F007A1E97413F1815
:105BD00087428041404209180B0200D4B0E0A44B38
:105BE00001359D4200D1C3E0A24A7B080A40012151
:105BF0000F401F435108D30707221F433A4099E73C
:105C00009B4EB54238D0802636043743B846382BF1
:105C100000DDDCE01F2B00DC30E11E004746203EAB
:105C2000F740BC46202B04D04026F31A46469E403F
:105C30003243170063467A1E97411F43CCE0002B86
:105C400000D104E24346134300D159E14B07C00899
:105C500018438023C9081B03194208D04546ED08A4
:105C60001D4204D14346D008590708432900420F7A
:105C7000C9007F4D1143C0004B07CA087C49C008CA
:105C800003438D4268D012036D05120B6D0D002188
:105C900012031800130B0A0D12051A43764B2D053B
:105CA00013402B435B00E4075B08234319001CBC33
:105CB00090469946A246F0BD3E00164312D05E1EA5
:105CC000002E00D000E187188742804141444042C5
:105CD000091801250B0233D5022585E764463300F8
:105CE000414610001D00C7E7002D00D0DAE00C008F
:105CF0000443F3D05C1C00D19FE15D4CA64200D16F
:105D00002FE1DB43382B00DD66E11F2B00DD83E153
:105D100020240500E41A0F00DD40D940A04043468E
:105D2000A7405B1A441EA04198462F433843171AD8
:105D3000BA42924143465242991A64463500CAE635
:105D400007223A40002A00D0F6E64B07CA08484925
:105D5000FF083B438D4296D11900114300D19EE1CB
:105D6000802109030A431203120B414D8FE71500EE
:105D7000002200238BE7002B00D0C7E06B1C5F05DF
:105D80007F0D012F00DCF1E0394DAB4200D1B9E0CD
:105D900085180A0085428941424449425118072228
:105DA000CF076D082F4349083A401D00C2E607227D
:105DB0003049ED1A31403A40BCE63E002838864072
:105DC00000279FE6380001F045FC20308EE6434670
:105DD00013431F007A1E9741C71BB84280414042BF
:105DE000091A78E60E003B0006431343002D61D1EB
:105DF000002E00D0F4E0002B00D11BE164463900F6
:105E0000100039E71A4FBB427AD03300FFE630006A
:105E10001F3DE840202B03D04021CB1A9E40374342
:105E20007B1E9F41072207433A400021002589E756
:105E3000171A4346BA42B641591A76428E1B644637
:105E40004EE61F2B00DDADE020264746F61AB74090
:105E5000B9461700B246DF404E463E43370056462D
:105E6000B240561EB24117434246DA408918AEE6A8
:105E7000FF070000FFFF7FFFFFFF0F802026474640
:105E8000F61AB740B9461700B246DF404E463E43C9
:105E900037005646B240561EB24117434246DA40DA
:105EA000891A99E77F4CA6425BD0802424045B4288
:105EB000214327E7002E0CD1002B00D1CBE0644614
:105EC00039001000774DD7E6764FBB4218D033002B
:105ED00075E6002B14D04B07C00818438023C9086F
:105EE0001B03194207D0FC081C4204D17907D008D3
:105EF0000843E14621004C46420FC9001143C0004F
:105F0000684DB9E61D0000220023C0E6002D5BD1DC
:105F10000D00054300D1E2E65D1C00D1B0E0614D0B
:105F2000AE421FD0DB43382B71DC1F2B00DD96E027
:105F300020250F00ED1AAF40B9460700AA46DF4002
:105F40004D463D432F005546A840D940451EA84127
:105F500088440743BF18974292415142414435005B
:105F60003AE6644635004146100085E60B000343DF
:105F7000002D00D063E6002BF5D04346134300D13B
:105F80007AE6871887428041072241444042091837
:105F90003A400B0200D4D5E6434B01351940C9E520
:105FA000380069E61E004746203EF740BC46202BDD
:105FB00004D04026F31A46469E40324317006346FB
:105FC0007A1E97411F4302E6364DAE42CAD0802565
:105FD0002D045B422943A6E70843411E8841A6E6FB
:105FE000002B00D148E6871A4346B842B641CB1A87
:105FF00076429E1B33024BD5171A4346BA42924152
:10600000591A5242891A072264463A4092E50143DE
:106010000F00791E8F419DE71C000F00203CE740D8
:10602000202B03D04024E31A99400843411E8841A5
:1060300038437CE60022002425E6171A4346BA427C
:106040009241591A5242891A6446350043E5414645
:106050001000144D10E680220024120380E61D007B
:106060000F00203DEF40BC46202B03D04025EB1A0B
:106070009940084307006346781E87411F4369E73C
:10608000871897429B4141445B42C9183500A3E5FC
:106090003B003343CED0072231003A4052E6002382
:1060A0001A00F4E5FF070000FFFF7FFFF0B5574639
:1060B000DE464E464546E0B5834607000E034800DF
:1060C00085B092461C00360B400DCD0F002800D144
:1060D0009DE0954B984239D08023F6001B041E4367
:1060E000924A7B0F334399469446030063440093DE
:1060F00000230026FF00029323031B0B9846630036
:10610000E40F52465B0D019400D1B3E086498B4207
:1061100000D19EE04246D100802212040A4351463B
:10612000490F11438B46814952468C46009963447E
:10613000CB1A0021D20000932B0063409A460F2E09
:1061400000D905E17A4BB6009B599F465B46334325
:10615000994600D0B8E00223082600270090029359
:10616000CAE7CB463A0002990195019B9A4602295B
:1061700027D0032900D180E2012944D06D49009B3A
:106180008C4663441C00002C38DD530700D013E21A
:10619000D2085B46DB0109D55946674B19408B464F
:1061A0008021C9008C46009B63441C00634B9C42C9
:1061B00007DC5B4664055F075B0217431B0B620D40
:1061C00002E000230027584A00211B031C0B0B0D83
:1061D0001B05234314055A4A380013401C435346F9
:1061E0006400DB0764081C43210005B03CBC9046FA
:1061F0009946A246AB46F0BD0122524201231B1B29
:10620000382B00DCADE1002200230027DCE75B46F1
:10621000334399465ED0002E00D18AE1300001F070
:1062200019FA03000B3B1C2B00DD7BE11D22D31A66
:106230005A460100DA4008398E4013005F46334366
:1062400099468F403F4B00261B1A00930023029370
:1062500052E7414653460B433B499B468C46009BC5
:10626000634400935B46002B3BD1022300221E4374
:10627000022161E7434613439B4637D04346002B38
:1062800000D162E1404601F0E5F903000B3B1C2B15
:1062900000DD53E102004146083A914088461D2145
:1062A000CB1A5146D9400B0041460B439B465346FF
:1062B00093401A00009B25499C46604403008C468D
:1062C00063440093002137E70323B14600900C2676
:1062D000029311E700230093013304260027029361
:1062E0000AE70323C3461E43032125E701331E4368
:1062F0000022012120E700239A46802300271B0368
:10630000094A61E7802349461B03194200D1E2E0B4
:106310005946194200D0DEE00B431B0317001B0B4C
:10632000A246014A50E7C046FF07000001FCFFFFFC
:106330005CA90000FF030000FFFFFFFEFE07000056
:10634000FFFF0F800DFCFFFF01F8FFFFF3030000CC
:10635000D94500D9CBE000D1C6E03C004846002733
:10636000009B013B00935B46160E1B021E4313026B
:10637000984633041B0C9946310C0191FFF72EFA15
:106380004A4642430B04210C050019438A4207D9AF
:106390008919013D8E4203D88A4201D9851E891987
:1063A000881A0199FFF71AFA09048C464A46210413
:1063B00064464243090C030021438A4204D98919E7
:1063C000013B8E4200D8F1E02D041D43AB4643460D
:1063D000891A4246280C12041D0C5B46140C22003C
:1063E0001B041B0C5A4303946B43444302956843BC
:1063F0001B19150CEB189C4203D980246402A44697
:1064000060441C0C15041B042D0C20185D198142DE
:1064100077D373D00C1AA24A7D1BAF42BF4194467A
:10642000009B7F426344E01B1C00864200D1DBE0FE
:106430000199FFF7D3F94A4642430B04290C0700A0
:1064400019438A4207D98919013F8E4203D88A42EB
:1064500001D9871E8919881A0199FFF7BFF9090424
:106460004A46894629044D464243090C0300294304
:106470008A4207D98919013B8E4203D88A4201D941
:10648000831E89193F04891A3A00039F1A43380072
:1064900013041B0C584381460298150C6F43434369
:1064A00045434846000C8446DB1963449F4203D9A8
:1064B000802040028446654448461F0C00041B04AB
:1064C000000C7D191818A94200D284E000D17FE0A9
:1064D00001231A4357E680234A461B0313431B0339
:1064E0001B0BAA466F4A6FE6BA4200D935E74B4606
:1064F000DC0758087B081C43FF0734E70024AF4241
:1065000089D247444745A4415B466442A4196418B4
:10651000013BA6421ED2A0426DD800D1B6E0241A9B
:106520009B4678E703005A46283B9A40002791464D
:1065300088E6584601F08EF8203072E60300524695
:10654000283B9A4093460022B4E6504601F082F878
:1065500020309AE6A642E2D1B845DCD9341A9B46EF
:1065600059E71F2B65DC504C0099A4465C466144FA
:1065700008008C4011008240D940501E82410C43DB
:1065800014435A46DA401300620709D00F22224012
:10659000042A05D02200141D9442894149425B1807
:1065A0001A0262D50122002300270DE68A4200D894
:1065B0000AE7831E891907E70F231340042B00D134
:1065C000E6E5171D9742924153429B44FA08E0E5E5
:1065D000002800D1D7E57118531EB14227D3A94234
:1065E00015D358D01A0073E7002B00DC04E6012312
:1065F00000229B44CDE502234744474589415B4245
:106600009C46494289190C19E344241A03E743467E
:106610005F0047459B41B8465B429E19023A891983
:10662000A94200D054E7404500D051E7ABE51A003D
:10663000F6E71F215F4649420C1BE740202B07D09D
:106640001A49009B8C46634418005B4683401A43FA
:10665000501E82413A4307270023174009D00F21DB
:10666000002311401400042995D122005F075B022A
:106670001B0BD20817430022A6E5802359461B03B3
:106680000B431B0317001B0B064A9DE5BD42B2D806
:106690009B460024BFE68045B9D31A00C3E7C04635
:1066A000FF030000FF0700001E0400003E0400007E
:1066B000F0B54F464646D6468446C0B58046194E8C
:1066C00018030F034D00000B5C0082463F0B6D0D5D
:1066D000C90F9146640DDB0F0120B5420AD0B442C8
:1066E00003D0A54201D157450CD01CBC9046994619
:1066F000A246F0BD66463E43F7D1AC42F5D15446C2
:106700001443F2D10120C845EFD1994207D0002DA2
:10671000EBD163461F433800471EB841E5E7002030
:10672000E3E7C046FF070000F0B54F464646D646B1
:106730004D00C0B50E03C90F8A462C491F035C00EB
:106740008046360B6D0D91463F0B640DDB0F8D427D
:106750001ED08C4216D0002D1ED130438446002C12
:1067600001D13A4323D06246002A1AD09A4529D053
:10677000514602200139084001381CBC9046994618
:10678000A246F0BD39001143E5D002204042F4E7B3
:106790003043FAD1AC420FD0002C0FD13A43E7D0AE
:1067A0000CE00122013B934318000130E5E763460A
:1067B0000020002BE1D0DBE73A43E6D19A45D7D160
:1067C000A542D5DCA54205DBBE42D1D808D00020C9
:1067D000BE42D2D250460123013898430130CCE763
:1067E000C845C5D80020C845F4D3C6E7FF07000058
:1067F000F0B54F464646D6464D00C0B50E03C90F0C
:106800008A462E491F035C008046360B6D0D91466B
:106810003F0B640DDB0F8D4218D08C4211D0002D40
:1068200018D130438446002C1ED13A431CD1634614
:106830000020002B30D05146022001390840013899
:106840002AE039001143EAD0022025E03043FBD191
:10685000AC4226D0002C26D13A4324D15146022006
:1068600001390840013817E06246002A0FD09A45E6
:10687000E1D1A54205DBBE42DDD819D00020BE42E1
:106880000AD25046012301389843013004E0012226
:10689000013B9343180001301CBC90469946A24628
:1068A000F0BD3A43D0D19A45C5D1A542C3DCE0E75B
:1068B000C845C0D80020C845E3D3EDE7FF07000076
:1068C000F0B55746DE464E464546E0B583460600DF
:1068D0000F03480087B092461D003F0B400DCC0FC0
:1068E000002800D16FE0DE4B984238D08023FF00B3
:1068F0001B041F43730F3B430193DA4B0027994658
:1069000000239B46F60081442B0369001B0B524673
:106910009846490DED0F002900D185E0D04B9942F2
:1069200000D173E04346DA0080231B041343524630
:10693000CC48520F84461343524600206144D20093
:1069400089442100694000918C46012149448A46CE
:106950000F2F00D990E0C449BF00CF59BF465B4616
:106960003B43019300D06AE10223082700268146B9
:106970009B46C9E732005846019B614600910228B8
:1069800000D175E0032800D1FEE1012800D02CE100
:1069900000230027002600253F032A0D3F0BB348A4
:1069A00012053A4302401B051343009A5B00D107CE
:1069B0005B080B433000190007B03CBC9046994679
:1069C000A246AB46F0BD5B463B43019300D12FE1AD
:1069D000002F00D1A5E1380000F03CFE03000B3B86
:1069E0001C2B00DD96E11D22D31A5A460100DA4025
:1069F0005E4608398F4013008E403B4301939C4B09
:106A000000271B1A994600239B467DE741465346C3
:106A10000B4393498C46E144002B00D01AE102223B
:106A20000220174300228CE7134300D10DE14346B7
:106A3000002B00D181E1404600F00CFE02000B3A31
:106A40001C2A00DD72E10100434608398B4098465C
:106A50001D239A1A5346D3401A0043461343524605
:106A60008A404946081A824989468144002068E7DD
:106A70007B4B002700268EE7140C1204120C110029
:106A8000370C3604350C794328008C462E006043C1
:106A90006044834656432100300C80465846794373
:106AA00040440291844506D98846802149028C469B
:106AB000E044414602913604010C360C00048B463A
:106AC00081191E0C1B041B0C0391190079438C4681
:106AD000280075436544A8465843050C4544774350
:106AE000A94203D9802149028C466744290C8C466F
:106AF00039000004000C2D042D186144AB440591AD
:106B00005946049101990F043F0C080C3900514378
:106B10004243904602008C46090C8B4662437C43FC
:106B200044445C44A04503D980214902884642443C
:106B3000210C884661460904090C8C4639005943EA
:106B4000434370437E430F0CF6182404BE1964447B
:106B500042448C46B34203D980235B0298464044AA
:106B6000029B61469846049B370443449B46AB45D1
:106B7000AD416B420D0405992D0C8C467F1967447D
:106B8000FD18A8465D462D19A542A44193466442CE
:106B9000A446C344DC448F42BF4198459B41934582
:106BA0009241A445A4415B427F421F43360C5242AE
:106BB0006442BF192243BF18624638184302D20DFF
:106BC000039913436A020A43501E82416146ED0D48
:106BD0002A434E023243D90100D4B3E001265008C3
:106BE00032400243DE0732435B08224C5444002CFF
:106BF00062DD510709D00F201040042805D0101D78
:106C00009042924152429B180200D90104D580243F
:106C10001948E400034054441848844200DD27E743
:106C20005E075B02D2081F0B630516435B0DB2E6DD
:106C3000002399460133042700269B4664E603237C
:106C4000019781460C279B465EE6012201201743EF
:106C5000002276E6032303201F43434671E6C04625
:106C6000FF07000001FCFFFF9CA90000FFFF0F8051
:106C70000DFCFFFFFF030000FFFFFFFEFE0700000B
:106C80000023802700933F030026434B83E6019BAC
:106C90003200A446584670E6AC466EE6802701995D
:106CA0003F0339422DD03B422BD11F433F033F0BC3
:106CB00000951600384B6EE601252D1B382D00DDA2
:106CC00066E61F2D40DC35481C005044160082400B
:106CD0008440EE40501E824134431443EB4062072F
:106CE00009D00F222240042A05D02200141D94420C
:106CF000804140421B181A023ED50123002700267E
:106D000049E68027019B3F031F433F033F0B00944D
:106D1000214B40E603005A46283B9A400026019248
:106D20006DE6584600F096FC203057E603005246C8
:106D3000283B9A401300002293E6504600F08AFC5C
:106D400020307BE6CA4650E71F201E004042041B4D
:106D5000E640202D03D0124C5444A3401A43501E49
:106D60008241324307260027164009D00F20002316
:106D7000104014000428B9D122005E075B021F0BEB
:106D8000D2081643002306E680273F031F433F0334
:106D90003F0B1600004BFEE5FF0700001E0400003D
:106DA0003E040000F8B557464E464546DE460C0008
:106DB0000903E0B5490A460F5F0031431E03DB0FAC
:106DC000760A9B46530F3343C84E6500C000E40F5C
:106DD000D2006D0DA24681467F0D9C469046B7427B
:106DE00000D1B9E05B46012673409B46EE1BA345EC
:106DF00000D183E0002E63DD002F00D0B1E06346B8
:106E0000134300D123E1731E002B00D0BAE1861A90
:106E10006346B04280410125C91A4042091A0B025B
:106E200000D447E149024B0A98464346002B00D163
:106E300089E1404600F00EFC0300083B1F2B00DDFB
:106E40007CE120223000D21A4146D0409940020015
:106E50009E400A439D4200DD6AE15D1B6B1C1F2BB7
:106E600000DD94E1202110003500C91A8E40DA407F
:106E70008840DD40711E8E41110007222843002505
:106E800006433240002A09D00F233340042B05D09B
:106E9000331DB342B641764289191E000B0200D45D
:106EA0003DE26A1C914B55056D0D9A4200D119E1E6
:106EB0008F4AF6080A40570752023743120B9BE0ED
:106EC000002E00D0C5E06E1C7605760D012E00DC8C
:106ED00048E16746861ACB1BB042BF417F42B846A5
:106EE0001F004346FF1A3B00B8461B0200D55FE176
:106EF00037439AD100220024002579E0002E00DCDF
:106F0000FAE0002F00D18DE0784B9D4267D08023BE
:106F100067461B041F43BC46382E00DC52E1634623
:106F200013435A1E93411E1886428041404209185D
:106F30000B0200D4BEE06D4B01359D4200D1D2E082
:106F40006B4A73080A4001210E401E435108D307C3
:106F500007221E43324095E71E00164300D045E746
:106F600040E7624B9D423AD0802367461B041F4393
:106F7000BC46382E00DDEBE01F2E00DC3AE133008A
:106F80006746203BDF403B00202E05D04027BF1B3B
:106F90006646BE40324390464646721E9641334393
:106FA000DAE0002B00D114E26346134300D168E11C
:106FB00080234E07C008C9081B030643194208D0A6
:106FC0006046C008184204D163460100D2085E073B
:106FD0001643F3009946C900720F444D11434B46C6
:106FE000DE08424B4F073743CA089D4200D16EE08E
:106FF00012036D05120B6D0D00211203130B0A0D08
:1070000012051A433B4B2D0513402B435B00E4074D
:107010005B082343380019003CBC90469946A246C1
:10702000AB46F8BD6346134311D0731E002B00D04E
:1070300007E18618864280416144404209180125D3
:107040000B0237D502257BE73E00614691463500AD
:10705000C5E75C46002D00D0E1E00B000343F3D010
:10706000731C00D1ACE1214B9F4200D13AE1F343C4
:10707000382B00DD6FE11F2B00DD8CE120250E0099
:10708000ED1AAE40B0460600AA46DE4045463543FE
:107090002E005546D940A8406346451EA8415B1ABC
:1070A0009C463043161AB242924163465242991AA4
:1070B0003D00B4E607223240002A00D0E4E60B4B44
:1070C000F6084F073743CA089D4200D090E73B00BF
:1070D000134300D1A6E180231B031A431203120BB2
:1070E000024D89E715000022002785E7FF07000011
:1070F000FFFF7FFFFFFF0F80002E00D0C7E06B1C5B
:107100005E05760D012E00DCF0E0C84DAB4200D1EB
:10711000B9E085180A008542894162444942511804
:107120000722CE076D082E43490832401D00A9E60C
:10713000BF49ED1A114007223240A3E63200283839
:107140008240002686E6300000F084FA203073E6A4
:10715000634613435A1E9341C61AB04280414042CF
:10716000091A5CE60E00674606431743002D5ED100
:10717000002E00D0F3E0002F00D11EE15C466146F6
:1071800091462CE7A94FBE427BD01E00F1E61000CD
:107190001F3DE840202B03D04021CB1A9A401643D4
:1071A000731E9E410722064332400021002583E7DB
:1071B000161A6346B2428041591A40420B1A984649
:1071C0005C4632E61F2E00DDABE02027BB1B9A4653
:1071D00063465746BB40994613004F46F3401F4352
:1071E0003B005746BA40571EBA4113436246F2402D
:1071F000891898E62027BB1B9A4663465746BB4032
:10720000994613004F46F3401F433B005746BA4090
:10721000571EBA4113436246F240891A9CE7834BDA
:107220009F425FD080252D047342294320E7002E22
:107230000CD1002F00D1D0E05C46614691467B4DD9
:10724000CDE67A4FBE421CD01E0065E6002F18D056
:10725000C0084E0706438020C9080003014208D039
:107260006346DC08044204D12100DA46D2085E07F6
:107270001643F300994601245346C900720F114387
:107280001C406A4DABE61D0000220027B4E6002D2D
:1072900059D10B00034300D1D6E6731C00D1B2E0F4
:1072A000624B9F421ED0F343382B6FDC1F2B00DD57
:1072B00097E020250E00ED1AAE40B0460600AA4623
:1072C000DE40454635432E005546A840D940451E70
:1072D000A8418C440643B6189642924151426144FB
:1072E0003D0025E63D006146914678E60B000343EC
:1072F000002D00D055E6002BF5D06346134300D196
:107300006DE6861886428041614440420918002299
:107310000B0200D4D0E6464B01351940B2E5B14628
:107320005DE633006746203BDF403B00202E05D062
:107330004027BF1B6646BE40324390464646721EFB
:1073400096413343EFE5394B9F42CBD080252D0446
:1073500073422943A8E70843411E8841A2E6002F53
:1073600000D13CE66346861ACF1AB0429B415B428D
:10737000FB1A98461B024ED5161A6346B24292413A
:10738000591A5242891A5C4600227BE501430E00DD
:10739000711E8E419FE71D000E00203DEE40B0465D
:1073A000202B04D04025EB1A9940084381464846DB
:1073B0004346411E8841184374E60022002417E624
:1073C000161A6346B2429241591A5242891A3D0036
:1073D00025E561469146154D01E680220024120301
:1073E00079E61D000E00203DEE40B046202B04D073
:1073F0004025EB1A9940084381464E464346711E8C
:107400008E411E4367E7861896429B4161445B426A
:10741000C9183D008CE547463743CED00722414688
:10742000324049E600273A00E6E5C046FF07000083
:10743000FFFF7FFF70B50C4E0D031C0349005B007E
:107440002D0B490D240B5B0DB14208D006490020DD
:107450008B4203D114432000441EA04170BD05435C
:107460000120002DFAD1F1E7FF07000030B5144DDF
:107470000A034B00120B5B0DC90F0024AB4211DD58
:10748000104CA34210DC8024640322430E4CE41A07
:107490001F2C0CDD0D48C31ADA4013005C42002992
:1074A00000D11C00200030BD094BCC18FAE7094D73
:1074B000E040AC4663449A4013000343EEE7C04605
:1074C000FE0300001D04000033040000130400004C
:1074D000FFFFFF7FEDFBFFFF70B500282DD0C31726
:1074E000C5185D40C40F280000F0B4F8154B1B1AF6
:1074F0005B055B0D0A2815DD0B38854000222D0346
:107500002D0B002110002D030A0D2D0B12052A430F
:107510000D4D1B052A4013435B00E4075B08234322
:10752000190070BD02002900153291400A000B219C
:10753000081AC5402D032D0BE3E700240023002586
:107540000022DEE71E040000FFFF0F8010B5041EBE
:1075500025D000F07FF8144B1B1A5B055B0D0A2841
:1075600012DD0B38844000222403240B002110007C
:1075700024030A0D240B120522430C4C1B05224048
:1075800013435B00590810BD0200210015329140E1
:107590000A000B21081AC4402403240BE6E7002349
:1075A00000240022E2E7C0461E040000FFFF0F8017
:1075B0004100090E4B1C70B5DBB24602750AC40FC0
:1075C000012B14DDE0239B006D07360BCB18002147
:1075D0000A0D280012051C4D32435B052A405B084A
:1075E00013435B00E4075B082343190070BD0029C7
:1075F00014D1002D1ED0280000F02CF80A281CDC25
:107600000B232A001B1ADA40030015339D400F4B51
:1076100012031B1A5B05160B5B0DD8E7002D06D075
:10762000320B802636036D071643094BCFE7084B14
:107630000026CCE700230026C9E703002A000B3B05
:107640009A400025E3E7C046FFFF0F808903000052
:10765000FF0700001C2101231B04984201D3000CEA
:1076600010391B0A984201D3000A08391B099842B5
:1076700001D30009043902A2105C40187047C046CB
:1076800004030202010101010000000000000000EB
:1076900030B51C00094B05001B6885B0D868084B45
:1076A000002A01D1074B1A000292019300912B008E
:1076B0002200054900F00AF800F0BCFF8400002019
:1076C000DCA9000086A80000E9A900000EB403B5FB
:1076D000010003AB044804CB0068019300F032F9C9
:1076E00002B008BC03B018478400002070B5002623
:1076F0000C4D0D4C641BA410A64209D1002602F0CB
:1077000093FC0A4D0A4C641BA410A64205D170BD1F
:10771000B300EB5898470136EEE7B300EB589847B3
:107720000136F2E7540200205402002054020020E7
:107730007002002010B5034B0100186800F07CF8BF
:1077400010BDC0468400002010B5034B010018682E
:1077500000F028F810BDC0468400002082B0002947
:1077600000D101A9101E06D0002B06D013780B60A3
:107770001078431E984102B0704702204042FAE759
:10778000002310B59A4200D110BDCC5CC454013323
:10779000F8E703001218934200D1704719700133C3
:1077A000F9E7000070B50500002910D00C1F236810
:1077B000002B00DAE418280001F0B9FF1D4A136815
:1077C000002B05D163601460280001F0B1FF70BD8B
:1077D000A34209D9216860188342F3D118685B6815
:1077E00041182160EEE713005A68002A01D0A24236
:1077F000F9D919685818A0420BD1206809185818EF
:1078000019608242E0D110685268411819605A60CC
:10781000DAE7A04202D90C232B60D5E72168601873
:10782000824203D1106852684118216062605C6036
:10783000CAE7C046B80E0020032370B5CD1C9D4397
:10784000083506000C2D1ED20C25A9421DD830008B
:1078500001F06DFF254A14682100002919D1244C3C
:107860002368002B03D1300000F0EAFD20602900DE
:10787000300000F0E5FD431C2BD10C2330003360B9
:1078800001F056FF03E0002DDFDA0C233360002007
:1078900070BD0B685B1B19D40B2B03D90B60CC1884
:1078A000256003E04B688C420DD11360300001F07D
:1078B0003FFF200007220B30231D9043C31AE7D05F
:1078C0005A42E250E4E763600C00EFE70C004968BD
:1078D000C3E70323C41C9C43A042E1D0211A30001B
:1078E00000F0AEFD431CDBD1C7E7C046B80E002058
:1078F000BC0E0020936810B5013B9360002B04DAA6
:107900009469A34207DB0A2905D01368581C10604C
:107910001970080010BD00F0B5FD0100F9E7F8B5D9
:1079200006000F001400D518AC4201D1002007E07A
:1079300021783A003000FFF7DDFF0134431CF3D11A
:10794000F8BD0000F0B59FB002900F00160005933F
:10795000002805D083690493002B01D101F0D0FDEC
:107960007B4B9F425BD1029B5F68BB891B0762D543
:107970003B69002B5FD0002306AC63612033637644
:107980001033A37635002B78002B01D0252B5CD14A
:10799000AB1B04930CD0320039000298FFF7BFFFF5
:1079A000431C00D1C4E06269049B94466344636154
:1079B0002B78002B00D1BBE00122002352426260F1
:1079C00002A9543252186E1C2360E360A360137046
:1079D000A365317805225F4801F09EFE751C0028E2
:1079E00035D12268D30604D5532302A95B18202180
:1079F0001970130704D5532302A95B182B211970A2
:107A000033782A2B2CD0350000210A20E3682A780D
:107A10006E1C303A092A64D900292ED026E04E4B3C
:107A20009F4202D1029B9F689FE74C4B9F429CD193
:107A3000029BDF6899E73900029800F085FD002875
:107A400099D0012040421FB0F0BD01359BE7414B6A
:107A50002268C01A01238340134323602E00B8E735
:107A6000059B191D1B680591002B01DB099304E0A0
:107A70005B42E3600223134323602B782E2B0AD151
:107A80006B782A2B35D1059B02351A1D1B68059290
:107A9000002B2BDB0793324E29780322300001F0B4
:107AA0003BFE002806D04023801B8340226801351E
:107AB00013432360297806222A486E1C217601F0A0
:107AC0002BFE00283AD0284B002B25D10722059BFE
:107AD00007339343083305936369039A9B186361E3
